:020000040800F2
:104000000050002051410008E5A80008E7A800087A
:10401000E9A80008EBA80008EDA8000800000000CF
:10402000000000000000000000000000B1B2000825
:10403000EFA8000800000000E1B20008F1A80008A5
:1040400099410008994100089941000899410008E8
:1040500099410008994100089941000899410008D8
:1040600099410008994100089941000825A90008D4
:1040700099410008994100089941000899410008B8
:104080009DB10008A9B1000831A9000899410008B4
:10409000994100089941000899410008B5B100080C
:1040A00099410008E1AA00089941000899410008D7
:1040B000F9AA0008EDAA00089941000805AB00081C
:1040C000D1AF0008994100089941000899410008C2
:1040D0009941000899410008994100089941000858
:1040E000994100089941000899410008000000002A
:1040F00000000000000000000000000000000000C0
:0C41000000000000000000005FF8E0F18B
:1041100010B5054C237833B9044B13B10448AFF301
:1041200000800123237010BD680000200000000003
:10413000D4C4000808B5034B1BB103490348AFF3CF
:10414000008008BD000000006C000020D4C40008FE
:10415000002103E00B4B5B58435004310A480B4BE2
:1041600042189A42F6D30A4A02E00023136004324E
:10417000084B9A42F9D307F07DF908F057F907F098
:10418000FFF9FEE77CE20008000000206400002048
:1041900068000020BC2E0020FEE7000006480068F2
:1041A000006880F3088862B661B6BFF34F8FBFF333
:1041B0006F8F00DF00BF000008ED00E04FF05003FC
:1041C00083F31188BFF36F8FBFF34F8FFEE70000BB
:1041D000002307B501930A4B1B68013301D0FFF799
:1041E000EDFF4FF0500383F31188BFF36F8FBFF3E0
:1041F0004F8F019B002BFCD003B05DF804FB00BF88
:104200005C00002008B5EFF305830F2B07D90E4A99
:104210009B5C0E4A12789A4201D9FFF7CFFF4FF00C
:10422000E0230B4AD3F80C3D126803F4E063934299
:1042300008D94FF0500383F31188BFF36F8FBFF39A
:104240004F8FFEE708BD00BFF0E300E0E629002045
:10425000E8290020054A08B513680BB9FFF7AEFF3F
:10426000013B13600BB983F3118808BD5C0000208B
:1042700008B54FF0500383F31188BFF36F8FBFF37E
:104280004F8F074A13680133012B136007D14FF09A
:10429000E023D3F8043DDBB20BB1FFF78FFF08BD7D
:1042A0005C0000200023084910B501EB800118468E
:1042B00051F833400133A2B202EB1442102B1044E8
:1042C000F6D1C0F38F0010BD84000020034A0130F6
:1042D000116813685B1A8342FBD37047EC290020F6
:1042E000036810B59A68D10701D4002010BD9A6800
:1042F0000A4922F001029A600C689A68D207F4D544
:104300000A68121B022AF8D9836A43F010038362F9
:10431000C36A43F00103C3620120E7E7EC290020F0
:10432000436A9A6A12F0500F18D19A6A42F40072E6
:104330009A621A68926802F46022B2F5602F10D176
:10434000DA6872B99A6A22F480729A629A6AD2041E
:1043500007D49A6A42F001029A6270471B6A1B6B8B
:10436000184770477047436A9A6A42F040029A625F
:10437000DA6A42F00402DA627047000008B590F889
:104380002130022B03D004238363012008BD03687E
:104390001A6822F00E021A601A6822F001021A60EE
:1043A000174A93421CD0143293421BD014329342CA
:1043B0001AD0143293421AD0143293421AD01432C3
:1043C00093420CBF4FF480134FF080730D4A53603B
:1043D0004FF480730384436B7BB198470020D5E78B
:1043E0000123F3E71023F1E74FF48073EEE74FF476
:1043F0008053EBE74FF48033E8E71846C6E700BF89
:10440000080002400000024070B40425C66B026C34
:104410003468036895402542196832D04D0730D57D
:104420001A6896065EBF1A6822F004021A603D4AB6
:10443000934219D01432934218D01432934217D0B9
:104440001432934217D01432934217D0143293424D
:104450000CBF4FF480034FF08063334A5360C36A4C
:10446000002B5CD070BC18470423F6E74023F4E728
:104470004FF48063F1E74FF48043EEE74FF480237D
:10448000EBE702259540254235D08D0733D51A68D4
:10449000940606D41A6822F00A021A60012280F8F3
:1044A0002120204A934219D01432934218D014325A
:1044B000934217D01432934217D01432934217D03C
:1044C000143293420CBF4FF400134FF00073164A9E
:1044D0005360002380F82030836AC1E70223F6E7A7
:1044E0002023F4E74FF40073F1E74FF40053EEE7B5
:1044F0004FF40033EBE70825954025420FD009071C
:104500000DD5196821F00E011960012303FA02F29A
:10451000726083634FF480730384036BA0E770BC05
:10452000704700BF08000240000002401A4A0368BA
:1045300090420AD0B0F1804F07D0A2F59432904259
:1045400003D002F58062904215D14A6823F07003CF
:104550001343114A90420AD0B0F1804F07D0A2F520
:104560009432904203D002F58062904203D1CA682F
:1045700023F4407313434A6923F080031343036019
:104580008B68C3620B688362034B984204BF0B695C
:104590000363012343617047002C01402DE9F74F6D
:1045A00000221646644F654BDFF894C1DFF894E1B2
:1045B0004FF001080D6808FA06F808EA050438EA21
:1045C00005057BD14D68032D07D8013D022D00F272
:1045D0008E80DFE805F09CA1A700122D00F09F80DF
:1045E00073D8112D00F09580FF2C98BF82464FF0B4
:1045F0000F0988BF00F1040A4FEA8605DAF8008047
:1046000088BF203D09FA05FB28EA0B0802FA05F5E8
:1046100048EA0505CAF80050D1F804A01AF0805FF6
:104620004CD0BD6926F0030845F00105BD61BD69A8
:1046300008F1804805F00105019508F5803806F07D
:10464000030B019D4FEA8B0BD8F8085009FA0BF9C0
:1046500025EA09093C4DA84268D005F58065A842C5
:1046600066D005F58065A84264D005F58065A8424E
:104670000CBF0325042505FA0BF545EA0905C8F822
:1046800008501D681AF4803F14BF2543A5431D60E0
:104690005D681AF4003F14BF2543A5435D609D6823
:1046A0001AF4801F14BF2543A5439D60DD681AF4EA
:1046B000001F14BF2C4325EA0404DC600136102ED1
:1046C0007FF476AF03B0BDE8F08FDFF880904D4502
:1046D0000DD018D8A9F580194D4508D009F57029D5
:1046E0004D4504D0A9F580194D457FF47DAF8A680A
:1046F000D2B1012A08BFC0F810804FF0080218BFDD
:10470000C0F8148070E76545F1D07545EDE7CA68DB
:104710006AE7CA68043267E7CA68083264E7CA68A9
:104720000C3261E700225FE704225DE70025A2E783
:104730000125A0E702259EE7001002400004014089
:10474000000031100000321000080140000022106B
:10475000024A136801331360704700BFF429002038
:10476000F8B50F4D0F4EFFF783FD2C6807683368CF
:1047700042689F4201D0944210D20B68A71A9F4210
:104780000AD21B1B13440B60336803602B68436021
:104790000020FFF75FFDF8BD00230B600120F8E764
:1047A000B42E0020942E002008B9064B1868026B26
:1047B0000020135CA52B02D0C0F38F00704701309E
:1047C000F7E700BF14290020064A13681968064B52
:1047D00019B94FF0FF321A6070471268D268D26878
:1047E0005268F8E718290020902E0020054B1B681E
:1047F00033B1054B1B68002B0CBF02200020704713
:1048000001207047B02E0020F429002043689A68E8
:104810004B608A609A68516099600368086101334F
:104820000360704730B50C68631C0AD103695A688D
:104830004A6091608B6059600368086101330360CE
:1048400030BD00F10802134652681568A542FAD936
:10485000EDE70369D0E901128A605160596881422D
:1048600008BF5A60002202611A68013A1A6018688B
:10487000704700002DE9F84F3C4B1B68002B6ED1B0
:104880003B4B1D6801351D60BDB93A4B1A68126873
:1048900042B14FF0500383F31188BFF36F8FBFF322
:1048A0004F8FFEE7344A1968106818601160334A68
:1048B000136801331360FFF787FF314E002433681C
:1048C000304F9D4210D214222F4B1B68DB6A53439A
:1048D000FB58022B2D4B28BF01241B68002B18BF4F
:1048E00001242046BDE8F88FDFF888A0DFF8A0900B
:1048F000DAF800301B681BB94FF0FF333360E2E792
:10490000DAF80030DB68D3F80CB0DBF8042095420D
:1049100001D23260D7E70BF104084046FFF799FF58
:10492000DBF828201AB10BF11800FFF792FF0122E3
:10493000DBF82C00D9F8003082401A43C9F8002077
:104940001422414602FB0070FFF760FF0E4BDBF8BC
:104950002C201968CB6A9A4228BF0124C8E70D4A67
:104960000024136801331360BBE700BFF429002063
:10497000B42E0020182900201C290020942E00208D
:10498000902E00202029002014290020B82E00207D
:10499000FC290020982E002032492DE9F8430B68AD
:1049A00043B94FF0500383F31188BFF36F8FBFF308
:1049B0004F8FFEE7FFF75CFC0B68013B0B600C6858
:1049C00024B10020FFF746FCBDE8F883264B1B68A6
:1049D000002BF6D0254D264EDFF898801FE0EB68BF
:1049E0000127DC6804F1040904F11800FFF731FF26
:1049F0004846FFF72EFF1420E26A316807FA02F3F7
:104A00000B4300FB028049463360FFF7FFFE1A4B61
:104A1000E26A1B68DB6A9A4201D3184B1F602B685D
:104A2000002BDCD10CB1FFF7CFFE154D2C6844B143
:104A30000127124EFFF71EFF00B13760013CF9D18C
:104A40002C600E4B1B68002BBBD04FF0E0234FF0C7
:104A50008052C3F8042DBFF34F8FBFF36F8F012037
:104A6000B0E700BFF4290020F02900209C2E002090
:104A7000FC2900202029002014290020B82E002025
:104A8000982E002038B5C368DC6844B94FF0500355
:104A900083F31188BFF36F8FBFF34F8FFEE704F1ED
:104AA00018052846FFF7D5FE114B1B68E3B9251DF5
:104AB0002846FFF7CEFE01230E49E26A08689340BC
:104AC000034314200B6029460B4B00FB0230FFF719
:104AD0009DFE0A4BE26A1B68DB6A9A4285BF012091
:104AE000074B0020186038BD29460648EFE700BF95
:104AF000F4290020FC29002020290020142900206E
:104B0000B82E00209C2E00202DE9F04104464FF0E5
:104B10000108FFF7ADFB90F845501B4F6DB200F157
:104B20002406002D17DCFF234FF0010884F84530E0
:104B3000FFF790FBFFF79CFB94F84450124F6DB2C7
:104B400004F11006002D12DCFF2384F84430BDE888
:104B5000F041FFF77FBB636A002BE4D03046FFF7DC
:104B600091FF08B1C7F80080013D6DB2D9E7236914
:104B7000002BE9D03046FFF785FF08B1C7F8008069
:104B8000013D6DB2DEE700BFB82E00200020704767
:104B90000A4B9A7A12F03C0FC2F383000DD09A7937
:104BA00002F0FF004AB19A799879052A92BF42F241
:104BB00010734EF66023053858437047B42900201F
:104BC00038B5134B9A7A12F03C0F01D1002038BD52
:104BD0009B79002BFAD00F4A0F4B11681B6841EAF2
:104BE000030288B1002AF2D00C4D2C68E41AFFF7BA
:104BF000CFFF8442EAD92868411AFFF7C9FF8142F2
:104C000094BF00200120E2E7002ADFD0ECE700BFDC
:104C1000B4290020D4280020D8280020B42E002059
:104C2000054A537A013303F001035372507A431E4D
:104C300058425841704700BFB4290020134B5A7B9B
:104C400012F0080F9A8811D0143292B29A809A8882
:104C500092B2B2F5117F84BF3C229A80988880B2CC
:104C6000B0F5117F14BF0020012070470A3292B2C4
:104C70009A809A8892B2B2F5967F84BF0A229A806F
:104C8000988880B2B0F5967FECE700BFB429002089
:104C90000A4B9A790132D2B29A719A790F2A84BF5B
:104CA00000229A71064A1278632A04BF00229A7180
:104CB0009879A0F10F03584258417047B429002059
:104CC000040100200A4B1A7B0132D2B21A731A7BFC
:104CD0003C2A84BF00221A73064A1278632A04BF52
:104CE00000221A73187BA0F13C03584258417047C8
:104CF000B429002004010020344B5A7B597BC2F3B5
:104D0000C00282F0010262F3C30159735A7B12F0B0
:104D1000080F9A8A92B240D0052002EBC201A0315E
:104D2000B1FBF0F189B29982598889B201EBC101D6
:104D3000A031B1FBF0F189B259809A8892B202EBAE
:104D4000C202A032B2FBF0F20A2192B29A809A8A91
:104D5000002092B2B2FBF1F29A829A8A92B202EBEE
:104D60008202520092B29A825A8892B2B2FBF1F257
:104D70005A805A8892B202EB8202520092B25A8052
:104D80009A8892B2B2FBF1F29A809A8892B202EBC0
:104D90008202520092B29A8070470920203A02EBB8
:104DA000820292FBF0F189B29982598889B2203946
:104DB00001EB810191FBF0F189B259809A8892B29E
:104DC000203A02EB820292FBF0F2BDE7B429002008
:104DD0000E4B9A7A997AC2F38302013262F385010B
:104DE00099720A219A7AC2F38302B2FBF1F001FBB5
:104DF0001022997A62F385019972987AC0F3830040
:104E0000A0F1090358425841704700BFB42900205F
:104E1000054900204B7B4A7BC3F3800383F00103E9
:104E200063F382024A737047B429002005490020C9
:104E30004B7B4A7BC3F3400383F0010363F34102DE
:104E40004A737047B4290020074B1A7E0232D2B24F
:104E50001A761A7E232A84BF00221A76187E212809
:104E600094BF002001207047B4290020064B002089
:104E70005A7B12F0100F5A7B0CBF42F010026FF3F6
:104E800004125A73704700BFB4290020184B5A7B94
:104E900012F0080F9A8A92B217D092B94FF4F072BA
:104EA00040F252319A829A8A92B28A4284BF002298
:104EB0009A82988A80B2B0F5527F14BF00200120F8
:104EC00070479A8A143292B2EAE76AB9FA229A8251
:104ED0009A8A92B2B2F5E17F84BF00229A82988AC0
:104EE00080B2B0F5E17FE8E79A8A0A3292B2EEE743
:104EF000B42900200B4BDA7AD97AC2F3810201324D
:104F000062F38301D972D97ADA7AC1F3810161F34C
:104F10008302DA72D87AC0F38100C31E5842584126
:104F2000704700BFB42900200E4B5A7B597BC2F357
:104F30004112013262F34611597303215A7BC2F3C5
:104F40004112B2FBF1F101EB4101521A597B62F3BC
:104F500046115973587BC0F34110831E5842584183
:104F6000704700BFB4290020054900204B7B4A7BD5
:104F700003F0010383F0010363F300024A737047F7
:104F8000B4290020034A0020537EB3FA83F35B095F
:104F900053767047B4290020084B9A8B013292B2A5
:104FA0009A839A8B92B2322A84BF01229A83988B79
:104FB00080B2A0F13203584258417047B429002012
:104FC0000E4B5A8B92B2012A0ED105225A835A8B6C
:104FD00092B25A2A84BF01225A83588B80B2A0F120
:104FE0005A035842584170475A8B92B2052A17BF4C
:104FF0005A8B0A220A3292B2E8E700BFB429002095
:105000006421094A937B0133DBB29373937BB3FB37
:10501000F1F001FB1033DBB29373907BA0F16303DB
:1050200058425841704700BFB4290020054900206C
:105030008B7A8A7AC3F3801383F0010363F38612B9
:105040008A727047B4290020094BD97ADA7A013183
:1050500061F30102DA72D97ADA7A61F30102DA7263
:10506000D87A00F00300C31E58425841704700BF71
:10507000B4290020074AD37B0133DBB2092BD37359
:1050800084BF0123D373D07BA0F109035842584158
:10509000704700BFB4290020074A137C0133DBB2FC
:1050A000092B137484BF01231374107CA0F109032E
:1050B00058425841704700BFB429002038B500233A
:1050C0000C21094D04462B70D0E9003212781B6880
:1050D00001FB02335B6898472B7813B10322A36866
:1050E0001A6001232B7038BDD02500202DE9F74F21
:1050F000394B01461C68002C6BD00025FFF728FBBC
:10510000236820690B43DFF8D490354EDFF8D48054
:1051100004F10C0723608742236807D123EA0503C3
:10512000236003B0BDE8F04FFFF736BCD0E9001AAA
:1051300021F07F4211F0806F03EA020C04D1BCF130
:10514000000F03D15046E6E76245FBD1C90148BFD5
:105150001543D9F8002042B94FF0500383F311886A
:10516000BFF36F8FBFF34F8FFEE7D0F80CB043F063
:1051700002430360BBF1000F08D14FF0500383F3EB
:105180001188BFF36F8FBFF34F8FFEE7FFF761FB0F
:105190000BF1040108460191FFF75BFB0122DBF8EC
:1051A0002C00D6F800C002FA00F343EA0C03336087
:1051B0001423019903FB0080FFF728FB0A4BDBF85F
:1051C0002C101B68DB6A994282BF0122074B1A60D0
:1051D000B8E703B0BDE8F08FA8190020F42900203B
:1051E000FC2900202029002014290020B82E0020AE
:1051F00008B5074B196809B9FEF7E0FFFFF738F863
:10520000886BFFF727F8003818BF012008BD00BFE2
:105210001C19002048F2E80358436423C00B58438C
:105220005B23B0FBF3F0084BDA8A92B242B139B992
:10523000DA8A92B282422FBF0846DB8A9BB2C01A3A
:10524000024B1860704700BFB4290020DC28002002
:10525000002170B5FFF7DEFF82B28AB3012319493E
:1052600031F823409D00A24215D24FF47A76013BDB
:1052700031F8232080B2801A7043A41A90FBF4F016
:1052800001EB830329445B884A88D21A504390FB80
:10529000F6F0184470BD0133322BE1D14FF47A732C
:1052A0004FF43C7280B2A0F512400938584390FB8D
:1052B000F2F00A22504390FBF3F000F5F570E9E7B5
:1052C0001046E7E738E1000820220C4B1A61022261
:1052D0001A61282200BF013AFCD14FF400321A6152
:1052E000282200BF013AFCD14FF400121A61282293
:1052F00000BF013AFCD102221A6170470008014048
:105300004FF40032094B1A61282200BF013AFCD148
:1053100020221A61282200BF013AFCD102221A6120
:10532000282300BF013BFCD1704700BF00080140AB
:105330000222094B1A61282200BF013AFCD1202227
:105340001A61282200BF013AFCD14FF4001298687C
:105350001A61C0F340007047000801400A4B78B161
:1053600002221A61282200BF013AFCD120221A61D0
:10537000282200BF013AFCD14FF400121A61704795
:105380004FF40032EDE700BF0008014010B50146C0
:10539000082401F08000013CFFF7E0FF490014F011
:1053A000FF04C9B2F5D10222034B1A61FFF7C0FF17
:1053B000B0FA80F0400910BD00080140F0B5544239
:1053C000A0421E46059D134635DD602833DC0028CB
:1053D00000EB0207B6BF44420024E4B2602FC4BF12
:1053E000C0F16002D2B219BB13492718096805EB56
:1053F000040C0F4421468A4213D8102E1BD1102EC4
:1054000018BF00230D492344096820442B44084455
:10541000A24210D913F8011B013400F8011BE4B2B9
:10542000F6E71CF801EB013107F801EBC9B2E2E73E
:105430000829E4D0E1E7F0BD382400203C24002016
:105440000229F7B504461CD11022204B20491A70BE
:105450000C22204B1A701F4B1F4E1D781B4BB6F9A8
:1054600000701B783846DA086A4304FB0211009189
:105470001A492A4691F900103D44FFF79FFF3580F5
:1054800009E0012809D1154BB3F900201AB91249D6
:105490000A8008221A8003B0F0BDFCD90B4A0D4BDC
:1054A00041B90820107006224B2C1A700CD9002428
:1054B0002146D0E7102111700C224B281A70F6D823
:1054C0000749023CA4B2C6E70649FAE7D8250020FE
:1054D000F0DB0008D925002002250020042500204B
:1054E000A8D10008B8D9000838B504460D4623787D
:1054F0008BB1F02B05D898B201342946FFF7A0FFF5
:10550000F5E7607838B1F03B0F38C3EB0323034471
:1055100098B20234F1E738BD002205490A800549F6
:105520000A800178012914BF11460130FFF7DCBF62
:1055300002250020042500200A4B10B50C4603F17B
:10554000DA0203EB4003B3F88A0004EB440410448E
:10555000FFF7E2FF0022044BA400023C1C80034B37
:105560001A8010BD98C600080225002004250020DE
:1055700008B507210520FFF7DFFF064B06485B7BD8
:10558000012113F0080F054B08BF1846FFF7ACFFC9
:10559000002008BDB429002094C5000896C5000865
:1055A00008B507210F20FFF7C7FF40F27670074BC1
:1055B00001215B7B13F0100F40F2867308BF034696
:1055C00003481844FFF790FF002008BDB4290020CD
:1055D00072C70008072108B50846FFF7ADFF094B61
:1055E000997A01F00301012908D002294FF0010145
:1055F00006D00548FFF778FF002008BD0348F9E70B
:105600000348F7E7B4290020ECCE0008F0CE0008EC
:10561000FCCE0008072108B50920FFF78DFF0B4BD2
:10562000D97AC1F3810102290AD003290BD00129BB
:105630001ABF012106480748FFF756FF002008BDA2
:1056400001210548F8E701210448F5E7B4290020C5
:10565000EECE0008E8CE0008EACE0008ECCE000846
:10566000072108B51720FFF767FF094B597BC1F3E6
:105670004111012908D002294FF0010106D0054847
:10568000FFF732FF002008BD0348F9E70348F7E7BA
:10569000B4290020DCCE0008F6CE0008F8CE0008C1
:1056A00008B507210C20FFF747FF002008BD08B50B
:1056B00005210B20FFF740FF002008BD072108B59A
:1056C0001A20FFF739FF0C4BD97A01F003010229A8
:1056D00008D0032909D001290AD10848FFF704FF9F
:1056E000002008BD01210648F8E701210548F5E73B
:1056F00001210548F2E700BFB4290020E8CE0008E8
:10570000F2CE0008F8CE0008EECE000808B505215C
:105710000D20FFF711FF002008BD000037B504463B
:10572000284B03F1DA0003EB4403B3F8C630184406
:10573000FFF7F2FE244AD37A03F00303022B23D0AF
:10574000032B14BF4FF4FA704FF496701F4B20498F
:105750001B78E3B9D37A9D0719D00B681D4DA3427E
:105760001D4B02D00C60196829601B682968927A69
:105770005B1A5206B3FBF0F320D50322B3FBF2F21F
:1057800002EB42029B1A0AE04FF4C870DEE7552391
:105790000B60D37A13F0030F0CBF022300236020A9
:1057A0005B0100FB04330D480021034400931023E8
:1057B0004E201A46FFF702FE03B030BD022B28BF71
:1057C0000223ECE798C60008B4290020A8100020A6
:1057D00058000020D4250020B42E0020A5DE0008AB
:1057E00008B50020FFF79AFF002008BD08B501208A
:1057F000FFF794FF002008BD08B50220FFF78EFFD9
:10580000002008BD08B50320FFF788FF002008BD71
:1058100008B50420FFF782FF002008BD37B50C460D
:1058200011460022042C0092ADF804208DF80620C9
:1058300030D90A22B0FBF2F502FB150002308DF8D8
:105840000500B5FBF2F002FB105502358DF804504F
:1058500080B20A25B0FBF5F205FB120002308DF88C
:10586000030090B20A25B0FBF5F205FB12000230EE
:105870008DF8020090B20A25B0FBF5F205FB12008C
:1058800002308DF8010090B209E06846FFF72CFE67
:1058900003B030BDDDD0032CE4D0012CEBD10A25C0
:1058A000B0FBF5F205FB120002308DF80000002B72
:1058B000EBD06A4600230C20013C9C42E5DD1578C4
:1058C000022DE2D102F8010B0133F6E710B50521F4
:1058D0001020FFF731FE0F4B5B7A012BDCB20ED0AC
:1058E000022C11D04CB9012302211A460920FFF7DE
:1058F00095FF01210848FFF7F7FD002010BD234662
:10590000224602210C20F2E7012321461A461420E8
:10591000EDE700BFB429002098C5000808B50521AF
:105920000120FFF709FE054B03219888012380B26F
:105930001A46FFF773FF002008BD00BFB4290020FE
:1059400008B505210220FFF7F7FD114B9A792AB916
:1059500001211048FFF7C8FD002008BD9A79987909
:10596000052A0AD8012300EB8000022198401A463C
:10597000FFF754FF01210848ECE701230538022115
:1059800080B21A46FFF74AFF01210448E2E700BF50
:10599000B429002077CE00089AC500089CC50008ED
:1059A00008B505210320FFF7C7FD094B1A7B2AB96B
:1059B00001210848FFF798FD002008BD187B01234E
:1059C00002211A46FFF72AFF01210348F2E700BF30
:1059D000B429002077CE00089CC5000808B507212F
:1059E0000420FFF7A9FD0122044B1146987A0023F9
:1059F000C0F38300FFF712FF002008BDB429002088
:105A000008B505211120FFF797FD094B1A7E2AB929
:105A100001210848FFF768FD002008BD187E01231A
:105A200002211A46FFF7FAFE01210348F2E700BF00
:105A3000B429002077CE00089EC5000808B50521CE
:105A40000820FFF779FD094A938A9BB243B10123ED
:105A5000908A03211A4680B2FFF7E0FE002008BDBD
:105A600001210348FFF740FDF8E700BFB4290020FB
:105A700077CE000808B506211320FFF75DFD054B22
:105A80000221988B012380B21A46FFF7C7FE00203F
:105A900008BD00BFB429002008B506211420FFF777
:105AA0004BFD054B0221588B012380B21A46FFF7AC
:105AB000B5FE002008BD00BFB429002038B5134D45
:105AC00005211520FFF738FDAB7BCBB101230A245C
:105AD000A87B1A461946B0FBF4F0FFF79FFE0121A0
:105AE0000B48FFF701FDA87BB0FBF4F304FB1300A8
:105AF0000123C0B21A461946FFF790FE002038BDB8
:105B000001210448FFF7F0FCF8E700BFB4290020AA
:105B1000A0C5000877CE000810B5084CA37B5BB188
:105B200007211B20FFF708FD0123E07B1A461946D9
:105B3000FFF774FE002010BD0120FCE7B42900200F
:105B400010B5084CA37B5BB107211C20FFF7F4FCC8
:105B50000123207C1A461946FFF760FE002010BD85
:105B60000120FCE7B42900200221FFF769BC0028CE
:105B700014BF10201120FFF7F7BF000008B5072160
:105B80000E20FFF7D9FC044B587BC0F38000FFF7D1
:105B9000EEFF002008BD00BFB429002008B5072192
:105BA0000620FFF7C9FC044B587BC0F34000FFF709
:105BB000DEFF002008BD00BFB429002008B5072182
:105BC0000A20FFF7B9FC044B587B00F00100FFF7F7
:105BD000CEFF002008BD00BFB429002008B5072172
:105BE0001220FFF7A9FC044B587E003818BF012093
:105BF000FFF7BDFF002008BDB429002008B507212C
:105C00001920FFF799FC044B987AC0F38010FFF736
:105C1000AEFF002008BD00BFB4290020F8B51E4B20
:105C200005460E201C78FFF79FFF1F20B5FBF0F004
:105C30001A4BC0F10A0010F0F80F1968C5B2C0F392
:105C4000C4060BD0F32C8CBF01230D232046002764
:105C50002344DBB2421CD2B2934219D16022F32C0E
:105C600002FB06F64FF0FF038CBF01220D2205F068
:105C70000705AB402244D2B263F0FF03601CC0B200
:105C8000904208D034440D5D1D400D550446F5E7A3
:105C90000F541046DEE7F8BD02250020382400200E
:105CA00070B5224B224D9A689B6882F00202DB435A
:105CB0005B0003F00203C2F3400243EA0200134315
:105CC0001FBF1C4B1A681C4B1A602B7883420FD1E4
:105CD00068B1184B194A1B6812689B1AB3F5C87F44
:105CE00020D9012820D002280CBF0820202070BD18
:105CF000104C124920B1032B00D1184600230AE0B2
:105D000022680E68921BB2F5C87F09D2012B02D01F
:105D1000022B18BF1023226828700A601846E6E795
:105D20000346F8E70020E2E70420E0E7000C01402A
:105D3000A0250020B42E0020D4280020A425002077
:105D40004AF6AA22014B1B681A60704760270020A0
:105D50004FF0E0204FF0805408B506490B68012B46
:105D600005D9C0F8044DBFF34F8FBFF36F8FFFF716
:105D7000E7FFF3E72029002008B50020FEF792FA9C
:105D80000023094A32F81310814207D2013332F856
:105D9000130000EB8000400080B208BD02335C2B92
:105DA000F0D14FF4E170F8E7A0DD000810B547F638
:105DB0009670FFF74DFA0446FFF7DEFF0A23B0FBAB
:105DC000F3F0013C80B2204410BD00002DE9F04703
:105DD000DFF86C90044699F800600F46DFF86480A5
:105DE0006EB1C24600250120FEF75CFA0135EDB226
:105DF000082D4AF8040BF6D1013E89F8006057B12E
:105E00000120FEF74FFA104A137848F823000133B7
:105E100003F007031370002213460A49013251F8B8
:105E2000040BD2B2082A0344F8D1012C38BF012454
:105E3000DB089B00B3FBF4F080B2BDE8F08700BF45
:105E400055000020B0250020AC25002070B50F4B78
:105E50000021588A0A2680B2FFF7B8FFB0FBF6F59A
:105E6000044601230022A8B20221FFF7D7FC00213B
:105E70000748FFF739FB012306FB1540BDE87040DA
:105E80000022194680B2FFF7C9BC00BFB429002028
:105E9000A0C500082DE9F0471D4B0021588A80B2AB
:105EA000FFF794FF0A23C0B2B0FBF3F403FB140026
:105EB000C0B20428E4B284BF0134E4B2092C1FD973
:105EC0004FF00A090123B4FBF9F8124E19460022DB
:105ED0005FFA88F0B6F90050FFF7A0FC08230E4FD8
:105EE00009FB18403B80012300221946C0B23580CF
:105EF000FFF794FC00230C3535803B80BDE8F0872C
:105F000001232046BDE8F0471A461946FFF786BC34
:105F1000B4290020022500200425002008B5084BE4
:105F20000146588A80B2FFF751FF2D234043B0FB52
:105F3000F3F0044BC0EB00201B88B0FBF3F008BD6E
:105F4000B4290020E42900200122084B1A7040F2F5
:105F50002912074B1A80074B1B68DA6240F21B12AA
:105F60005A634FF4FA629A62704700BFA91000208A
:105F7000E4290020AC27002000282DE9F0410D463F
:105F800022DD184E184FDFF86480C0EB002428464D
:105F9000FFF7C4FFB4FBF0F3FF2B184628BFFF2028
:105FA0003278C0B2C2B1FE2B14D9002340F21B12CA
:105FB0003370D8F800303A80DA6240F20D125A633A
:105FC0004FF47A629A62E2E7094B588A80B2FFF78F
:105FD000FDFE0020BDE8F081E52BFBD8FFF7B4FF04
:105FE000D5E700BFA9100020E4290020AC2700203D
:105FF000B4290020012110B5FFF7BEFF0A220B4B88
:1060000004461A800A4B18700020FFF787FF4443AC
:10601000FF20E821B4FBF0F41820064A13684B4334
:1060200000FB0434240A146010BD00BFA41000203B
:1060300008290020002A00201FB500201A4B1B68E9
:10604000DA6BADF800201A6CADF802205A6C9B6C2C
:10605000ADF80420ADF80630144B1B68DA6BADF8D0
:1060600008201A6CADF80A205A6C9B6CADF80C2015
:10607000ADF80E306A46034632F8021B013308447D
:10608000082B80B2F8D10A4A137D116932F8134007
:1060900022F81300091B0133014403F007031161C7
:1060A000137504B010BD00BFE025002010260020AD
:1060B0009829002010B5A0B1FFF7BEFFFFF7C8F880
:1060C0000446FFF759FE0A231922B0FBF3F0094BEF
:1060D00080B21B682044B3FBF2F3C01A20EAE070E0
:1060E00010BD054B18690028B8BF0730C0F3CF00BA
:1060F000E4E700BF002A00209829002070B51A4D5F
:106100000C466B7B06461907C3F3C0001CD5002064
:10611000FFF7D0FF052300EBC000B0FBF3F303F162
:10612000200001232246032180B2FFF777FBD6B17E
:10613000012C6B7B0BD11A0758BF2046BDE870407D
:1061400048BF0020FFF710BDFFF7B4FFE9E7C3F336
:10615000C0011B0748BF0021BDE870404CBF034889
:106160000348FFF7C1B970BDB429002094C50008E9
:1061700096C5000810B5FFF719FE04460020FFF78A
:1061800099FF053CA4B284422CBF0020012010BD21
:10619000202210B5214B83F83D20214B18680028A0
:1061A00035D0036C43B14FF0500383F31188BFF334
:1061B0006F8FBFF34F8FFEE7036853B9836843B116
:1061C0004FF0500383F31188BFF36F8FBFF34F8FEE
:1061D000FEE7FEF717F8EFF311844FF0500383F357
:1061E0001188BFF36F8FBFF34F8F826BC36B9A42DF
:1061F0000BD290F845100132FF294BB2826307D1D0
:10620000436A13B12430FEF73DFC84F3118810BDBE
:1062100001335BB280F84530F7E700BF0C27002060
:1062200054250020426A92F83D3092F83E10212B0E
:10623000D8B2C9B2136803D022280CD120290AD1C0
:10624000596821F400615960002151855A6842F46F
:1062500040725A607047196821F4806119601968AA
:1062600041F400711960596821F4805159605968EE
:1062700021F40061596000235385136C0BB1FFF7C3
:1062800087BF202182F83D1092F83E1082F83E3000
:10629000F5E7436A19680A6822F480620A600022FE
:1062A00020215A8583F83D1083F83E201A6C42F075
:1062B00010021A64FFF76CBF436A1A68116821F470
:1062C000806111600021586B59854163986B41636F
:1062D00093F83D0060284FF0200083F83D0083F8DC
:1062E0003E1008BF1964136823F001031360FFF721
:1062F0004FBF01207047000070B5154B154D064685
:106300001C6828680430FEF7A4FA40B92A681249CC
:10631000D06A01220B68824023EA02030B602B68DB
:10632000A4195C6007D30D4B18682968BDE870405C
:106330000431FEF777BA0A4B186829680431FEF772
:1063400071FA084B1A68944238BF1C6070BD00BFD8
:10635000B42E002014290020FC2900201C29002034
:1063600018290020902E002008B550B94FF0E023E6
:106370004FF08052C3F8042DBFF34F8FBFF36F8FE0
:1063800008BD074B1B680BB1FDF718FFFEF7E0F9DE
:10639000FFF7B2FFFEF700FB0028E7D0F0E700BFF1
:1063A000F42900203220FFF7DFBF000070B50D4E4A
:1063B00035680544FFF774FC044654B1FFF770FCE0
:1063C0000446FFF7EFFF33689D42F6D270BD002C04
:1063D000FCD1FFF765FC0446FFF7E4FF33689D42FC
:1063E000F5D2F3E7B42E002010B50C46044B196823
:1063F0001831FEF717FA2046BDE81040FFF77CBFC2
:10640000142900202DE9F04385B00446019140B9DC
:106410004FF0500383F31188BFF36F8FBFF34F8F9B
:10642000FEE7056C45B14FF0500383F31188BFF3CD
:106430006F8FBFF34F8FFEE7FEF7D8F950B9019B7E
:1064400063B14FF0500383F31188BFF36F8FBFF335
:106450004F8FFEE728469B4F9B4E96E00546FAE796
:10646000019B5BB9002D00F029814FF0500383F3AD
:106470001188BFF36F8FBFF34F8FFEE720B93B68E2
:106480000293924B1B680393FDF7E4FEFEF760F95D
:10649000FDF7EEFE94F8443001A9FF2B04BF002362
:1064A00084F8443094F8453002A8FF2B04BF002341
:1064B00084F84530FDF7CEFEFEF752F9002840F093
:1064C0009B80FDF7D5FEA36B002B56D1FDF7C2FED6
:1064D0002368002B3BD1FDF7CBFEA568002D33D000
:1064E0003268EB6AD26A93427ED2AA69DFF8E08111
:1064F000002AA1BF3268D26AC2F10602AA61142240
:1065000002FB03836A699A426AD105F1040948468D
:10651000FEF79FF96F4B38B90120E96A1A6800FA53
:1065200001F122EA01021A6032681968D26AEA624D
:10653000012505FA02F0084318601420494600FBC3
:106540000280FEF763F90120FDF784FE05460199FC
:1065500004F12400FFF748FF2046FEF7D5FAFEF7C6
:106560001BFA88B94FF0E0234FF08052C3F8042D96
:10657000BFF34F8FBFF36F8F06E02046FDF76AFE33
:10658000FEF7C2FAFEF708FA0120FDF771FEA36BD1
:10659000002B3FF465AF013BA363236843B94A4B2B
:1065A0001A681AB119688A6D01328A651B68A3607E
:1065B000236973B104F11000FEF764FA48B14FF09B
:1065C000E0234FF08052C3F8042DBFF34F8FBFF389
:1065D0006F8FFDF73FFE0125284605B0BDE8F0832B
:1065E0003368DB6AEB62AEE73368686DDB6A98425A
:1065F0002CBF00200120A7E72046FEF785FAFEF712
:10660000CBF9FDF735FEA36B13B1FDF723FEBBE716
:10661000FDF720FE002DDFD0FDF72AFE636A1BB1D7
:10662000236B1B68C3F10603A468002C46D0A16D40
:1066300041B94FF0500383F31188BFF36F8FBFF35D
:106640004F8FFEE7626D934238BF1346E26A934272
:1066500034D0012932D11C4909688C4208D14FF04D
:10666000500383F31188BFF36F8FBFF34F8FFEE7A3
:10667000A169E3620029A4BFC3F10603A361142347
:10668000134D03FB02526369934217D1261D304616
:10669000FEF7DFF80F4AE76A28B901241368BC4007
:1066A00023EA04031360012314201168BB400B4349
:1066B00000FB075031461360FEF7A8F8FDF7CAFD4E
:1066C000002589E7942E002014290020B42E0020F4
:1066D00020290020FC29002008B5064B1A6802B9C1
:1066E00000BE64211868FFF78DFE431E58425841D2
:1066F00008BD00BF0825002008B5044B32211868EA
:10670000FFF780FE431E5842584108BD5425002023
:106710002DE9F041344B05461F680E4647B94FF04E
:10672000500383F31188BFF36F8FBFF34F8FFEE7E2
:10673000FEF75CF848B941B14FF0500383F311887C
:10674000BFF36F8FBFF34F8FFEE7FEF701F83C6892
:1067500015EA04080DD186B1244B1B68002B34D1F7
:106760004FF0500383F31188BFF36F8FBFF34F8F48
:10677000FEE7002624EA05033B60FEF70DF90EB3A1
:1067800048B94FF0E0234FF08052C3F8042DBFF317
:106790004F8FBFF36F8F164B1A68196894691A6888
:1067A000CB6AC3F106039361A30109D4FDF760FD31
:1067B0003C6825421CBF24EA05053D60FDF74AFD03
:1067C00024F07F442046BDE8F081094B45F00141AB
:1067D0001A68381D9161196844461831FEF716F899
:1067E0003046FFF789FDC8E7A8190020F4290020EA
:1067F00014290020154B70B51D68154E6A6912F0FA
:10680000800201D000201FE06C6914F480640FD175
:106810003268521A9042F1D21A6C032042F02002E0
:106820001A6420221C6383F83C4083F83D200BE06F
:106830006FF48061696104211964202101201A63C9
:1068400083F83C2083F83D1070BD00BF0C2700206A
:10685000EC290020144B70B51D68144E6A6912F0C3
:10686000400201D000200EE06C6914F010040BD03F
:106870006FF010016961202101201A6483F83C2027
:106880001A6383F83D1070BD3268521A9042E5D207
:106890001A6C032042F020021A64202283F83C4044
:1068A00083F83D20EFE700BF0C270020EC290020F3
:1068B00070B50546144A154E14686369DB4313F03E
:1068C000020014D0636913F4806311D0236820217F
:1068D00043F4007323606FF48063636104231364E3
:1068E00000230120136382F83C3082F83D1070BD14
:1068F0003068401A8542E0D220211363032082F8D9
:106900003D1082F83C30F2E70C270020EC290020F3
:10691000F0B5114DDFF844C02E68070C012F0CBFF5
:106920007469B46920EA0404A4B2B4FA84F4640972
:10693000A14201D000200EE0DCF80040E41AA2429F
:10694000ECD20023202203202B6385F83C3085F80D
:106950003D2085F83E30F0BD0C270020EC290020BA
:1069600013B590F83D30044603F0FF0200687BB990
:10697000144B84F83C20984216D103F50333DA69AE
:1069800042F00202DA61DB6903F002030093009B2C
:106990000223211D84F83D30FDF7C8FD01230020AE
:1069A00084F83D3002B010BDB0F1804FF0D1064BFD
:1069B000DA6942F00102DA61DB6903F00103019355
:1069C000019BE5E70004004000100240134B10B5A6
:1069D000DB68C3F30223C3F107041A1D042C28BF8C
:1069E0000424062A88BFDA1E4FF0FF3398BF002226
:1069F000A34021EA0303002803FA02F3ACBF00F12D
:106A00006040074A4FEA0313DBB2B5BF00F00F0046
:106A100000F56140135480F8003310BD00ED00E034
:106A200014ED00E010B54CF250342049204B0868BA
:106A3000DA68D20733D4DA68910644BF2022DA60DC
:106A4000DA68D20606D4DA69D40703D4D86810F01D
:106A5000040023D0164AD36813F0100305D015495B
:106A6000CB6943F00203CB611023D268500706D5EF
:106A7000104943F00403CA6942F00102CA610C4A9A
:106A8000D169C90708D50B48C16941F00401C1614A
:106A9000D16921F00101D1610120D36010BD0A68E4
:106AA000121AA242C4D90320F8E700BFEC29002043
:106AB00000200240E828002015490B681A6A22F0DD
:106AC00001021A621A6A1A62124A93420DD141F205
:106AD0001112186A104208D140F24442186A10425A
:106AE00002BF5A6C22F400425A6441F21112186A31
:106AF000104208D140F24442186A104202BF1A689C
:106B000022F001021A60012381F83D30704700BF76
:106B1000EC270020002C0140037F082B01D1FFF758
:106B2000CBBF704703681A6A22F001021A621A6A20
:106B300042F001021A62064A934202BF5A6C42F4C2
:106B400000425A641A6842F001021A60704700BF9E
:106B5000002C014010B5036804461A6991070ED550
:106B6000DA6892070BD56FF002021A6101220277F0
:106B70009B699B0701D1FFF7CFFF00232377236891
:106B80001A69500710D5DA6851070DD56FF0040265
:106B90001A61022222779B6913F4407F02D12046BA
:106BA000FFF7BAFF0023237723681A6912070FD56E
:106BB000DA6810070CD56FF008021A6104222277F8
:106BC000DB69990702D12046FFF7A6FF0023237750
:106BD00023681A69D20610D5DA68D0060DD56FF091
:106BE00010021A6108222277DB6913F4407F02D178
:106BF0002046FFF791FF0023237723681A69D10706
:106C00001CD5DA68D20719D56FF001021A61236822
:106C1000B3F1804F34D11E4A1E4913880968013BE5
:106C20009BB213801C4B1B78DBB20B640B6C23B341
:106C300013889BB20BB31948FFF774FF23681A69D6
:106C4000100605D5DA68110644BF6FF080021A619C
:106C500023681A69520605D5DA68500644BF6FF0FA
:106C600040021A6123681A69910605D5DA6892060E
:106C700044BF6FF020021A6110BDFFF71DFFDDE772
:106C8000074A934201BF074A136801331360D5E7EF
:106C9000A4100020AC27002008290020EC270020A9
:106CA000002C0140EC29002013B500211920FFF72A
:106CB0008DFE4FF000721B4B1B4C1A601B4B204685
:106CC0009A6942F400629A619A6902F40062019240
:106CD000019A5A685A685A685A68154A12685B6875
:106CE000144AC3F3C223D25C134B21611B68A16019
:106CF000D340124AB3FBF2F3114A013B226040F247
:106D0000E7326360E260FFF72BFE40B92368DA6880
:106D100042F00102DA601A6842F001021A6002B021
:106D200010BD00BF00E100E06C2700200010024011
:106D3000002002405AC600084C00002040420F00CC
:106D4000002C0140F0B56E4C6E4E94F83D3087B08B
:106D500003F0FF05002B5FD1C02212230127CDE9EC
:106D600002230223684802A9CDE9047384F83C5049
:106D7000FDF714FCF369654A43F40013F361F3690A
:106D8000182003F400130193019B614B6149C3E98F
:106D900000258022C3E90555C3E90325C3E90F1087
:106DA0009D60DD61D1F88000DFF86CC1DFF86CE137
:106DB00000EA0C001043C1F880004FF480709D631E
:106DC0001884A3635C62564BC3E903254FF48052D9
:106DD000C3F800E0DA614FF0100E1422C3E901E5B8
:106DE000C3E90555C3E90F12CA6E02EA0C0242F468
:106DF000845242EA0E02CA6618840F211F209D6346
:106E000063635C62FFF7E2FD4FF00043454D2020D5
:106E10002B60FFF7DBFD6F602423206884F83D3092
:106E20000368414A23F00103036073683F49C3F3D9
:106E30000223D35C3E4A1268DA4063688B4294BFF7
:106E40003C493D498A428CBF0021012109B107B06C
:106E5000F0BD364D3949AB42B2FBF1F188BF4FF47A
:106E60009676416082BF71434FF47A76B1FBF6F1BA
:106E7000AB4201F10101016202F1FF3223D85B0054
:106E8000B2FBF3F2531C40F6FC72134233D0C3F34F
:106E90000B03C361D4E9073213430360D4E903232E
:106EA00013438360D4E905321343C360036820228F
:106EB00043F0010303600023236484F83D2023632F
:106EC00084F83E30C3E7A16851B903EB4303B2FB3A
:106ED000F3F30133C3F30B037BB143F40043D8E76F
:106EE00019214B43B2FBF3F30133C3F30B0323B17B
:106EF00043F44043CDE70423CBE70123C9E700BFB8
:106F00000C27002000100240000C014080000240CD
:106F100084260020000002400FC0FFFF6C000240EA
:106F2000C826002000E100E05AC60008A086010043
:106F30004C0000207F841E00FF083D0040420F00EF
:106F4000F0B5284D11202A6885B01368402623F03B
:106F5000010313600123CDE9010302238027224CA2
:106F60006946204603930096FDF718FB26610097BB
:106F7000FDF714FB65234FF480022761A168090621
:106F800026D5122201234027CDE9012380260223A2
:106F90006946154803930097FDF700FB0096FDF73F
:106FA000FDFA276126612A68136843F400431360E1
:106FB00000BF2A68136823F40043136000BF2A68E7
:106FC000136843F001031360FFF7BCFE05B0F0BD8A
:106FD000226100BF00BF00BF00BF013B2661CDD1D1
:106FE000F4E700BF0C270020000C014070B5826A56
:106FF000044686B0002A3DD1654B0168C2629942C1
:1070000080F8242003F56C4340F089809969802042
:1070100041F4007199619B695E4903F40073029326
:10702000029B5D4B4FF40065C3E900124FF4007101
:10703000C3E903012021C3E905514FF480515748AA
:107040001A649A60D9618168D86321F47F5121F074
:10705000300141F4D55181609A634FF480721A84F3
:1070600023625C620F211220FFF7B0FC4FF48022F4
:107070004B4B1A602046FDF733F9A36A13F0100357
:1070800040F0818000287ED1A26AE069616822F424
:10709000885222F0020242F002020143A068A2627A
:1070A000E268B0F5807F41EA420155D0012814BF63
:1070B00000264FF480766569012D07D1002A4DD155
:1070C000A269013A46EA423545F400662268B0F505
:1070D000807F556825F4694545EA06055560966840
:1070E000304D05EA060545EA0105956001D0012805
:1070F00002D12369013B1B05D06A20F470000343D1
:10710000D3629268284B1340994230D10023E36246
:10711000A36A23F0030343F00103A36231E09A69F9
:10712000032542F480629A619B69204803F48063DE
:107130000193019B08230DEB0301CDE90235FDF717
:107140002DFA1023CDE90235FDF728FA0423CDE905
:107150000235FDF723FA85E70646ACE7A26A42F05E
:107160002002A262E26A42F00102E262AEE7A36A92
:1071700023F0120343F01003A362E36A43F0010318
:10718000E36206B070BDA36A43F01003C5E700BF19
:107190000024014008000240402600200000024078
:1071A00000E100E0FDF7E1FFFE0E1FFF00080140D7
:1071B00090F83C30012B15D0022380F83D30036855
:1071C0005A6822F070025A605A685A609A6822F02F
:1071D00080029A609A689A60012380F83D3000230B
:1071E00080F83C30704710B590F83D30044603F00D
:1071F000FF020BB980F83C200223206884F83D3060
:10720000211DFDF793F9012384F83D3010BDF0B541
:1072100090F82040012C27D0012490F8215080F8CC
:107220002040A5424FF0000427D102268463046861
:1072300080F82160266826F001062660D0E90F67F5
:10724000BD40756063604368102BC36A0BBFA260CA
:10725000A160E160E26043B1236843F00E03236064
:10726000236843F001032360F0BD236823F0040387
:107270002360236843F00A03F1E780F82040F3E736
:10728000024BC0220021186805F01CB938240020E8
:10729000F8B5036805460E467BB902600120334607
:1072A00001211F784C1EA4B277B1F02F93F801C0D2
:1072B00005D80133013189B2F3E70020EFE7BCF1D3
:1072C000000F01D00233F5E704EB4404A400A4B29C
:1072D000602C2AD92B68D31A184A527B12F0100F4F
:1072E00014BF0A221422B3FBF2F304F160021BB2B2
:1072F00093FBF2F102FB11335F2B1CDDA34218DC80
:107300001CB2B5F90430A3420ED0FFF7B9FF0C4B05
:10731000C4F160021A8000220A4B304601211A8013
:10732000FEF7E2F80120AC80F8BDC4F1600304EB85
:10733000630424B2E5E76024E3E700BFB42900203A
:1073400002250020042500202DE9F3410646DDE951
:1073500008040F46984640B94FF0500383F3118854
:10736000BFF36F8FBFF34F8FFEE744B94FF0500369
:1073700083F31188BFF36F8FBFF34F8FFEE7642352
:107380000193019B642B08D04FF0500383F31188C5
:10739000BFF36F8FBFF34F8FFEE795002A46A521FD
:1073A0002063019B05F08EF8226B043D2A4422F0F5
:1073B0000702002F00F096807B1E04F134001F3777
:1073C00013F8015F00F8015B0DB1BB42F8D1002357
:1073D00084F853304346052B28BF0523E3626365D9
:1073E000C3F106030021A3614FF08073E165A1653D
:1073F0006161A1622461646284F8601042F8043C17
:107400003F4B26F0010642F8086C42F80C3C42F86B
:10741000201C403A2260FCF72BFF3A4A3A4D136891
:107420003A4E013313602B68002B5ED12C6012683A
:10743000012A2ED132464FF0FF3C14201F4602F1A4
:107440000801C2E9011CC2E9031100FB03F1013389
:10745000062B775002F11402F1D12D4A02F10803F4
:10746000C2E9013CC2E903332A4B176003F108016A
:10747000C3E9011CC3E9031127491F6001F108009A
:107480000F60C1E9010CC1E9030024490A60244AE4
:107490001360244A244913680868013313600123E8
:1074A000E26A9340034314200B6000FB0260211D3D
:1074B000FDF7ACF9FCF7CEFE1C4B1B6873B12B68D3
:1074C000DA6AE36A9A4209D24FF0E0234FF0805221
:1074D000C3F8042DBFF34F8FBFF36F8F204602B068
:1074E000BDE8F08184F8347074E7104B1B68002B02
:1074F000CFD12B68DA6AE36A9A4298BF2C60C8E75A
:10750000D1410008F0290020142900202029002062
:10751000042A0020182A00209C2E00201829002070
:107520001C290020F8290020FC290020B02E002072
:1075300037B50446D0E90010A569B4F908302269CE
:1075400001956469842B0CBF002303330094FFF77B
:10755000FBFE03B030BD00000025A846AA462DE979
:1075600088484A4F0020FEF745FDDFF824913A682D
:10757000484B494EC9F800501A60FCF779FE3B6849
:10758000DB6D8BB901223B684FF4FA6083F8602011
:10759000FEF7B2FE4FF0E0234FF08052C3F8042D07
:1075A000BFF34F8FBFF36F8FFCF754FEFCF760FE05
:1075B0003B68D96D11B13B68C3F85CA03B6883F8A8
:1075C00060A0FCF747FE002959D00120FEF772FDAC
:1075D0008346D9F80000B0B1B0F5E17F28BF4FF481
:1075E000E1700446FEF7E2FBA04202D2FEF7DEFBAA
:1075F00004462A4BCBF10100204400F30F04186825
:10760000282303FB0400B37BBBB140F6C414F27B18
:10761000234B62431968A1EB0801914281BFFA2212
:10762000357CD3F8008002FB0585B27B824204DD05
:107630001B689D4284BFB07BC0B247F6DF72194B16
:107640001B69002BB8BF0733C3F3CF03934288BF36
:107650000020337E33B10A22337E53438342BCBFC2
:10766000307E5043104B1B6823B10A22534398428B
:10767000A8BF1846FEF7BEFCFEF762FB7DE70A22B4
:107680000A4B1A800A4B197077E700BF14290020B3
:10769000DC2500200C290020B4290020002A00202D
:1076A000B42E00209829002010290020A4100020CA
:1076B000082900202DE9F04F9A469C4C9C4B87B03E
:1076C0001E6894F83D308046202B89469346109FD3
:1076D00004D00225284607B0BDE8F08F33461922B2
:1076E00001219448FFF714F90028F2D194F83C30B6
:1076F0008B42EED0256884F83C102B683A46D807B8
:1077000058BF2B684FF001105CBF0B432B602B68F8
:10771000002123F400632B60222384F83D304023B2
:1077200084F83E30844B2164A4F82AA0E362638D80
:10773000C4F824B023852B6843F480632B602B6846
:1077400043F480732B603346FFF7E2F800BB2368F5
:1077500008F0FE001861314638465FFA88F5FFF7F9
:10776000A7F808B1236C13E0236805905A693146E5
:1077700005929B6938460593059BFFF73BF880B15E
:10778000236C042B04D12268136843F40073136044
:10779000236C042B4FF0000384F83C3078D1012592
:1077A00098E7236831463846C3F81090FFF722F86F
:1077B00001460028E4D122684FF00110136843F419
:1077C0008073136033463A46FFF7A2F80028DFD1F2
:1077D000236845F001051D6131463846FFF768F81A
:1077E00005460028BED1228D23689AB1012A27D1EF
:1077F0001A6822F480621A6072B6236803905A698C
:1078000003929A690392039A1A6842F400721A600A
:1078100062B609E004905A6904929A690492049A43
:107820001A6842F400721A60DFF81081238D1BBBC6
:10783000202284F83C3084F83D2084F83E3049E72B
:10784000022A1A680ED142F400621A6072B62368E6
:1078500002905A6902929A690292029A1A6822F474
:107860008062D4E742F480621A6001905A69019202
:107870009B690193019BD7E7032B61D8012B09D1A9
:1078800031463846FEF7E6FF10B3236C202B86D135
:1078900003251FE7022B3A4633464FF000014046CE
:1078A00024D1FFF735F80028F2D172B623681A68A0
:1078B00042F400721A601A69636A591C61621A7094
:1078C000238D013B2385638D013B9BB2638562B6AB
:1078D00023681A69636A591C61621A70238D013B1F
:1078E0002385638D013B9BB263859FE7FFF710F80B
:1078F0000028CDD12268136823F48063136072B628
:1079000023681A69636A581C60621A70238D3A46AC
:10791000013B2385638D4046013B9BB26385334623
:10792000FEF7F6FF0028C1D0B2E700BF0C27002009
:10793000EC290020020010000000FFFF04000100FD
:1079400031463846FEF786FF00289ED123681A6923
:10795000636A591C61621A70238D013B2385638D14
:10796000013B9BB2638523685A6952077FF55EAF7E
:10797000AFE700BF90F83C30F0B5012B38D00223C0
:1079800080F83D3003680E681A6A22F001021A621C
:107990001A6A5D689C6922F0020224F07304344381
:1079A0008E683243134EB3420BD1CE6822F00802E8
:1079B000324325F44075D1E905673E4322F00402C5
:1079C00035435D609C614C6809695C631A629A6921
:1079D00042F008029A619A6922F004029A619A6957
:1079E0000A439A61012380F83D30002380F83C303F
:1079F000F0BD00BF002C014013B5044618464AB143
:107A000091B94FF0500383F31188BFF36F8FBFF329
:107A10004F8FFEE741B14FF0500383F31188BFF35E
:107A20006F8FBFF34F8FFEE748230193019B482BD5
:107A300008D04FF0500383F31188BFF36F8FBFF36B
:107A40004F8FFEE7002908BF0246C0E90F410260E0
:107A5000019BFCF70DFCD0E90F3463430268D11899
:107A60001B1B13448160C3600021FF2342604FF061
:107A7000FF32816380F8443080F8453000F118030C
:107A8000C0E906234361036200F12C030161C0E9F0
:107A90000A32C0E90C334162FCF7DCFB02B010BDD6
:107AA0002DE9FF410022544B01921C6844B94FF06C
:107AB000500383F31188BFF36F8FBFF34F8FFEE73F
:107AC000FCF794FE50B9019B4BB14FF0500383F388
:107AD0001188BFF36F8FBFF34F8FFEE7104600266C
:107AE000464FDFF81C8139E0019B1BB9FCF7B2FB64
:107AF00000205DE020B93B680293D8F80030039382
:107B0000FCF7A8FBFCF724FEFCF7B2FB94F844302A
:107B100001A9FF2B08BF84F8446094F8453002A8FF
:107B2000FF2B08BF84F84560FCF794FBFCF718FEB8
:107B3000002853D1FCF79CFBA36B002B3BD1FCF737
:107B400089FB04F124000199FEF74EFC2046FCF766
:107B5000DBFFFCF721FF002835D00120FCF788FB74
:107B6000A56B002DC0D0226C62B1E368A1681344FC
:107B70008B42E36028BF2368224828BFE360E168A6
:107B800004F078FC013DA563236973B104F1100092
:107B9000FCF778FF48B14FF0E0234FF08052C3F874
:107BA000042DBFF34F8FBFF36F8FFCF753FB012002
:107BB00004B0BDE8F0812046FCF74CFBFCF7A4FFC5
:107BC000FCF7EAFEC9E74FF0E0234FF08052C3F81C
:107BD000042DBFF34F8FBFF36F8FBEE72046FCF736
:107BE00093FFFCF7D9FEFCF743FBA36B002B3FF49C
:107BF0007DAFFCF72FFBB0E71C190020942E00206E
:107C0000B42E0020AD1800202DE9FF410D4604469A
:107C1000019240B94FF0500383F31188BFF36F8F87
:107C2000BFF34F8FFEE751B9036C43B14FF05003E0
:107C300083F31188BFF36F8FBFF34F8FFEE7FCF71D
:107C4000D5FD50B9019B4BB14FF0500383F3118820
:107C5000BFF36F8FBFF34F8FFEE7002000266D4FFD
:107C6000DFF8B481ADE0A568C5B900250022A260A7
:107C70000136A663626A002A65D004F12400FCF78D
:107C800001FF002861D04FF0E0234FF08052C3F88D
:107C9000042DBFF34F8FBFF36F8F56E05F4B1B6810
:107CA0009D4208D04FF0500383F31188BFF36F8FCC
:107CB000BFF34F8FFEE7AB6D43B94FF0500383F333
:107CC0001188BFF36F8FBFF34F8FFEE7E96A6A6DCC
:107CD000013B9142AB65C8D0002BC6D105F1040829
:107CE0004046FCF7B6FDDFF838C14E4A58B91420BB
:107CF000EF6A78435CF800302BB901211368B94072
:107D000023EA010313606B6D1420C3F10601EB62DB
:107D1000A9610125116805FA03F70F4300FB03C0B1
:107D200041461760FCF772FDA0E72946606804F041
:107D3000A1FB6368226C1344A2686360934224BF72
:107D4000236863604BE0002D9DD1FCF783FA04B0FB
:107D5000BDE8F081019B002BF7D020B93B6802936E
:107D6000D8F800300393FCF775FAFCF7F1FCFCF748
:107D70007FFA94F8443001A9FF2B08BF84F84460CF
:107D800094F8453002A8FF2B08BF84F84560FCF743
:107D900061FAFCF7E5FC002836D1FCF769FAA26B22
:107DA000E36B9A421DD1FCF755FA04F110000199DA
:107DB000FEF71AFB2046FCF7A7FEFCF7EDFDC0B16D
:107DC0000120FCF755FAA26BE36B9A42C2D2226CF7
:107DD000A66B002AA9D12368002B3FF444AF0025ED
:107DE00046E72046FCF736FAFCF78EFEFCF7D4FD9A
:107DF000E6E74FF0E0234FF08052C3F8042DBFF3C5
:107E00004F8FBFF36F8FDBE72046FCF77DFEFCF75B
:107E1000C3FD9CE7942E0020B42E002014290020DE
:107E200020290020FC2900200022024B114618685E
:107E3000FFF7EABE0825002070B50C4D0C4E2B78DC
:107E40000BB1307870BDFEF747FC044648B14420C2
:107E5000FDF73AFAFDF79AFA0446FDF751FAFFF7F3
:107E6000E3FF0123204634702B70EBE7060100206E
:107E7000050100202DE9F84307460D461646FEF79A
:107E80002BFC044650B14420FDF71EFAFDF77EFAA4
:107E900038B9FDF735FA0024FFF7C6FF2046BDE8E4
:107EA000F8833846FDF772FA0028F2D04FF4001339
:107EB000194F3B61282300BF013BFCD14520FDF752
:107EC00003FAFDF763FA04460028E2D04FF00208F7
:107ED000A9B24FF008090025FDF72AFA6D00EDB2AE
:107EE00009F1FF39054319F0FF09EDB2F4D1012979
:107EF00008BF084601F1FF3118BF4846C7F8108097
:107F000089B2FDF72BFA06F8015B0029E1D1FDF7F4
:107F1000F7F9FFF789FFC1E70008014007B5012124
:107F200001AAFFF7A7FF08B19DF8040003B05DF8B0
:107F300004FB000010B504464320FFF7EFFF00F0FC
:107F4000E000E02816D102214320A21CFFF792FF97
:107F5000638813F4E04FC3F3023104D04320221DA1
:107F60008900FFF787FF04214320034AFFF782FFC0
:107F7000002010BD0120FCE7A825002083B5474C58
:107F8000474DAB689E052FD5FCF772F9236893F82F
:107F90006030022B14D0236847F23050DA6DDA6576
:107FA0000122236883F86020FEF7A6F94FF0E02352
:107FB0004FF08052C3F8042DBFF34F8FBFF36F8F84
:107FC000FCF748F9FCF754F9236893F86030022B6A
:107FD00001BF2268D36D23F00F03D365002223680D
:107FE00083F86020FCF736F96A4607213C20FFF74A
:107FF00041FF0028C5D09DF80330DD072FD5202292
:108000000021284804F05EFA274E264F274D4120D4
:10801000FFF784FF800622D433682248013333609F
:10802000FFF788FFB8B97B8803F01F020D2A06D13D
:1080300013F4E04F03D10120FDF758F8E7E74FF4C0
:108040000060FDF753F81A4B642218683946FFF7B1
:10805000DBFD0220F0E72B6801332B60D7E79DF8AA
:108060000230590703D54FF40070FDF73FF89DF833
:108070000230DA0603D54FF48060FDF737F89DF93A
:108080000230002BBFF67CAF9DF805309B077FF5D3
:1080900077AF2020FDF72AF872E700BF14290020EF
:1080A00000080140D8220020E0280020E428002019
:1080B0001C19002070B506460C461546FEF70CFB51
:1080C00010B34420FDF700F9FDF760F930B9FDF772
:1080D00017F900BEBDE87040FFF7A6BE3046FDF7B9
:1080E00055F90028F3D0A4B2013DFDF729FE15F89B
:1080F000010FFDF74BF90028E9D0013CA4B2002C98
:10810000F3D1FDF7FDF8E5E770BD000070B54388D9
:10811000064603F01F020D2A284D88B008D113F43B
:10812000E04FC3F3023203D12A70042008B070BDBF
:108130002C7823F46063640204F460641C4326F822
:10814000024FC4F30234A4001D4A023464F07F03DA
:10815000137105214320FFF7ADFF3246214643202E
:10816000FFF7A8FF174A04214320FFF7A3FF4FF0B2
:10817000FF3140F60160FEF7CBFA020506D52B78F9
:10818000013303F007032B700820CFE78305FBD5ED
:108190006846FFF7CFFEBDF8023003F01F02012A48
:1081A000F2D113F4E04FEFD12A78C3F34223934284
:1081B000EAD1013303F007032B70B6E7CD1A002094
:1081C000500000201CE200080023A64E2DE9804844
:1081D0003380FF23A44AA54DA54C8BB0137095F8AE
:1081E0000080B8F1100F00F23B83DFE818F01100B7
:1081F000030319004300FE0051016C01EB01FC0177
:10820000AD02B602BC02DB020D03260337033103C5
:108210000023984A1370984A137001232B70DEE7ED
:108220004FF47A712320FEF773FA002800F0BE8124
:1082300010F0210F1BD1830719D5FFF731FCB0B126
:10824000628802F01F03012BF7D112F4E04FF4D043
:10825000338813F0C00F08D102F0C0027F2A8CBF10
:1082600043F0800343F0400333804FF0030885F868
:108270000080B4E7FF237C4A137000236288C2F3B6
:1082800002329A420DD004EB83014968013301F0B8
:108290004040B0F1404FF4D111F0405FF1D172494C
:1082A0000B700020D3B201936368744AC3F3C063B8
:1082B0001370804601468446FF2242F6E06B704B05
:1082C0001860019B5FFA80F94B4541D904EB8003AC
:1082D0005B6813F0404A16D13227C3F3892E07FB9F
:1082E0000EFEDE450DD8C3F30903BEFBF3F7322FB4
:1082F00007DCE64501DCFF2A03D11946F4464A466D
:10830000D0460130DDE7BAF1404FFAD113F0405FBB
:10831000F7D103F07F0EC3F3474303EB83032D270D
:1083200003EB83039B009BB25B45A8BF5B460EEB50
:108330008E0E07FB0EFA5345A8BF53469C4501DB42
:10834000FF2ADED171469C464A464FF00108D8E725
:1083500030884C4B40F4805949F00209FF2ADFF87D
:1083600028E1A3F802902ED00132120702F0E04279
:10837000B8F1000F23D04FF005080431B1FBF8F13C
:108380004FF01408BCFBF8F801F07F0142EA4822E4
:10839000114341F080715960CEF800C000F0C00078
:1083A00080280AD1304A5B681278C3F30273934283
:1083B0002CBF01220022304B1A7004232EE70A43FF
:1083C00042EA8121E5E70A221A7128225A71002225
:1083D0009A711122DA712D4A12780AB11522DA71D6
:1083E00041F28832CEF80020D8E7002140F6FF7035
:1083F000FEF78EF92348FFF789FEC70701D50A2348
:108400000CE70028FBD0010701D5092306E740F659
:108410008C210320FEF77CF9C207F0D408B90B23A6
:10842000FCE6FCF7E5FE0028EFD0FFF739FB638898
:1084300003F01F02032A04D113F4E04FEFD1052308
:10844000ECE60D2AEBD003F01702042AE7D113F46F
:10845000E04FE4D1074B1B78002B0CBF022306230F
:10846000DCE600BFCE180020AC180020D01A002097
:10847000AD180020AC19002018190020CE1A0020D9
:108480001029002088190020B0190020CF1A0020E0
:1084900041F288310320FEF73BF9C307AFD4FCF764
:1084A000A7FE0028BBD0FFF7FBFA628802F01F038B
:1084B000062BF4D112F4E04FF1D10122B2490A7037
:1084C000B2490A70AAE64FF0FF3140F6FF70FEF79E
:1084D0001FF9470664D4C10765D4820666D4030633
:1084E00067D4C7053FF5C1AE80077FF5C0AEFCF786
:1084F0007FFE00283FF4BBAEFFF7D2FA618801F09F
:108500001F030F2B8AB21AD112F4E04F7FF4AFAEE3
:10851000308800F0C00080287FF4A9AE090404D59B
:10852000A188C1F308011A2946D8102B47D112F4AB
:10853000E04F14BF4FF00C084FF00F0897E6052BE3
:1085400003D112F4E04FE3D191E6092B05D112F4E7
:10855000E04FDDD14FF00D0889E6072BF7D00A2B4D
:10856000F5D00B2BF3D0022BF4D0042B03D112F453
:10857000E04FCDD0EEE7012B03D112F4E04FC7D08E
:1085800073E6082B04D112F4E04FC1D198466EE691
:108590000D2BBDD112F4E04FBAD14FF00B0866E6B7
:1085A0004FF0040863E64FF00A0860E64FF0090850
:1085B0005DE64FF007085AE64FF00E0857E64FF019
:1085C0000C0854E63388724843F007036380FFF7D2
:1085D0009DFDC2073FF513AF10F0040F18BF06232F
:1085E00008BF09231AE60A2323716FF06F03637132
:1085F0000123A371002341F2883142F6E062E37166
:10860000644B4FF032081B68B4F802A08B4208BFDD
:1086100013462D219AB2B2FBF1F3B2FBF8F85E4992
:10862000C3F3090901EA8821CAF3023A41EA0901C0
:108630000AF1FF3CA1604FFA8CFC4FFA8CF0471C0A
:1086400032D0D4452EDA04EB8C0EDEF804E01EF0B6
:10865000404F0BD1CEF3090BBBF1630F06D9CEF31C
:10866000892EAEF1A00EBEF1280F02D90CF1FF3C0D
:10867000E3E7C8B9022149F4C839C4F80490474B6C
:108680001B781BB1636843F0006363606368204636
:1086900043F080636360338843EA013141F00401B1
:1086A000618094E74FF0FF30A2F59C5CACF1080CC0
:1086B000BCF1310F0FD94FF00A0C84F804C06FF0F1
:1086C0006F0C84F805C04FF0010C84F806C04FF021
:1086D000100C84F807C0002834DD04EB80004068EB
:1086E000C0F3892CC4452DD0DFF8ACE0C0F3130CE7
:1086F00001EA0E0800EA0E00804588BFE1604FF0F5
:10870000030194BFC4F80CC0C4F808C0308800F05E
:10871000C0007F28B3D96420B2FBF0F205200433F7
:10872000B3FBF0F3500403F07F0300F0FF7012027C
:1087300092B20343134343F0404304EB810253607E
:1087400001319CE70221E1E7154A92F90030022B42
:1087500000F382800133137051E600230A4A13703C
:108760000A4A13705AE5338802A843F00303ADF8B0
:108770000A30FFF7CBFCC3073FF541AE10F0040F02
:1087800018BF02232CE700BFAC190020CF1A00202D
:10879000AD180020B019002000FC0F00CE1A0020F8
:1087A000CC1A002033882F4843F00D036380FFF775
:1087B000ADFCC7073FF523AE41077FF526AE40F677
:1087C0008C210320FDF7A4FFC2073FF518AE002857
:1087D0003FF41BAEFCF70CFD00283FF416AEFFF78C
:1087E0005FF9638803F01F02032A05D113F4E04FF9
:1087F0007FF40BAE022311E50D2A7FF406AE13F4CD
:10880000E04F3FF40CAE00E6338803F0C002402A8C
:108810000ED143F0040363802046FFF777FCC307C3
:108820003FF5EDAD10F0040F14BF06230C23F5E463
:10883000802AF1D143F01003EDE74FF4FA710120E3
:10884000FDF766FF10F0010F0CBF0D230A23E5E4CE
:108850004FF4FA60FDF788FD1023DFE40623DDE422
:108860000023DBE4AD18002007B58DF807100DF1EB
:1088700007020121FFF71EFC03B05DF804FB0000B6
:108880002DE980488BB0FFF7D7FA012801465CD16B
:108890000C20FFF7E9FF0A20FDF766FD06240025FE
:1088A000012103AA08468DF80C50FFF7E3FA9DF862
:1088B0000C30013BDBB2FD2B40D80F210B20FFF722
:1088C000D3FF00210A20FFF7CFFF00210E20FFF782
:1088D000CBFF00210F20FFF7C7FF0C210620FFF779
:1088E000C3FF07210920FFF7BFFF00210820FFF782
:1088F000BBFF04210720FFF7B7FF07210220FFF786
:10890000B3FF0A20FDF730FD4020FFF707FB0B21E6
:1089100004460220FFF7A8FF0A20FDF725FD4020AE
:10892000FFF7FCFA04F0030400F0030084427CD853
:1089300026210320FFF798FF0B217BE00A20013C52
:10894000FDF712FD14F0FF04AAD16420FDF70CFD21
:10895000C04CC14B1B78002B40F0CE80BF4BC04DAC
:108960005A7A95F80090002A14BF78225A225F8A1A
:108970000192BFB2B9F1000F0DD101213846FDF7C8
:1089800025FA5028DFF8DC8240F2D1800B2388F8EA
:10899000003003232B70B44B1B68B3F57A7FC0F013
:1089A000C28001213846FDF711FA2B78012B40F0E7
:1089B000BA80019B05B25D1B05EBD5767610731C62
:1089C000022B40F2B08037464FF4806ADFF89C8279
:1089D000002FC0F26B81012DC6F10003C8BF002338
:1089E0004FF480689D19A14E002D00F081814FF455
:1089F00080774FF40029C4F810801E202761C6F844
:108A00001090FDF7B1FC0823C4F810800A202761FC
:108A10003361FDF7A9FCC4F810801E202761C6F859
:108A20001090FDF7A1FC013DDEE725210320FFF7B3
:108A30001BFF07210220FFF717FF44210620FFF745
:108A400013FF04210720FFF70FFF02210C20FFF77F
:108A50000BFF03234FF400740693854B7D48CDE94B
:108A60000343012303A90593FBF798FD0A2117206F
:108A7000FDF7ACFF4FF400027E4B20211A60082066
:108A80007D4B7E4AFEF7B8FF7D4C7E4B03AD1860F0
:108A90000FCC0FC594E8070085E8070003A8FEF790
:108AA00047FD18230293029B182B08D04FF0500368
:108AB00083F31188BFF36F8FBFF34F8FFEE7724BC5
:108AC00000211A464FF0FF3042F80C1BC3E90302A5
:108AD0009A605A616D4E6E4A03AD0C345960136052
:108AE00031600FCC0FC594E8070085E8070003A8A4
:108AF000FEF71EFD306028E7664B1D78664B1B783D
:108B000073B1062D0CD1584F644E3B6832689B1AE6
:108B1000B3F57A7F04D94020FCF7E8FA3B6833606C
:108B2000102D3FF41BAF6420FDF71EFC11E798F8F1
:108B300000600A2E3FF62DAF08210123CDE9031373
:108B40000323DFF828A103A95046069385F8009077
:108B5000FBF724FD4FF4A063CDE904990393FBF7E1
:108B60001DFD4FF4F04320460393CDE90499FBF734
:108B700015FD4FF40023CAF81030CA460A20FDF74D
:108B8000F3FBB9F1820F1FFA89F254D9A3688C2A3A
:108B900083F4006BCBF3C02B0CD103230693022389
:108BA00005934FF40063204603A9CDF810A003936A
:108BB000FBF7F4FCB9F1C70F04D009F10109BBF1CF
:108BC000000FDBD000234FF00309CDE904334FF44D
:108BD0000063204603A9CDF818900393FBF7DEFC51
:108BE000BBF1000F5CD04FF480624FF080734FF008
:108BF000080B22614FF0010C23614FF4A063DFF8F2
:108C00006CA0CAF810B0CDE9033CCDF81890FBF782
:108C1000C5FC4FF480624FF080734FF00A09226167
:108C20002361CAF810B001213846FDF7CFF850286B
:108C300004D90123AEE64FF0000BBBE7642009F135
:108C4000FF39FDF791FB19F0FF09ECD1013688F8E7
:108C50000060A0E60008014005010020B4290020C2
:108C6000A6100020A7100020B42E0020000C014008
:108C70000000211000E100E0D0180020B41900200D
:108C8000ECC400081C190020B41A0020D4220020D3
:108C9000A8190020D01A002018190020201900203F
:108CA000013688F8006085F8009074E64FF40029DA
:108CB0004FF4807BC4F810A01E20C4F810B0C8F890
:108CC0001090FDF751FB4FF08073C4F810A00A20FC
:108CD0002361C8F81090FDF747FBC4F810A01E20D0
:108CE000C4F810B0C8F81090FDF73EFB01376FE6EE
:108CF0006420FDF739FB16E70022024B1146186885
:108D0000FEF782BF5425002030B585B00546FDF73B
:108D1000F3FC044668B14FF47A730F2100932846A0
:108D2000012303AAFEF7C6FCB0FA80F46409FFF73A
:108D3000E3FF204605B030BD2DE9F3478046894664
:108D40009246FDF7D9FC0646002851D06C4F6D4C79
:108D50003D6894F83D30202B45D12B461922012146
:108D60006948FDF7D5FD00283DD194F83C308B4291
:108D700039D0236884F83C101A684FF00110D207EC
:108D80005EBF1A680A431A601A68002122F4006262
:108D90001A60212384F83D30402384F83E300123BB
:108DA00021646385A3F10113E362638D2268C4F833
:108DB00024A02385136843F4807313602B464FF47B
:108DC000FA72FDF7A5FD50B9236808F0FE0018619E
:108DD00029464FF4FA70FDF76BFD68B1236C236CE4
:108DE000002384F83C30FEF7ABF80026FFF784FF41
:108DF000304602B0BDE8F087236801905A692946E1
:108E000001929B694FF4FA700193019BFDF7F2FC0C
:108E100040B1236C042BE2D12268136843F4007341
:108E20001360DCE72368C3F81090238D9BB9226898
:108E3000536913F004033FD0136843F400731360C5
:108E4000202384F83D30002384F83E3084F83C3001
:108E5000FFF752FFCCE729464FF4FA70FDF7CAFC42
:108E600040B1236C042BBED12268136843F4007315
:108E70001360B8E7616AD4F800C04B1C63620B78DA
:108E8000CCF81030638D228D013B501E9BB280B216
:108E900020856385DCF814305B07C6D50028C4D074
:108EA0008B1C63624B78023ACCF81030638D2285BC
:108EB000013B9BB26385B8E7516911F480610ED024
:108EC0006FF480615161042121642021236384F8BF
:108ED0003C3084F83D10236C042B84D1C5E73B68FB
:108EE0005B1BB3F5FA7FA3D9236C84F83C1043F0E5
:108EF000200323642023216384F83D30EBE700BF87
:108F0000EC2900200C270020020010002DE9F3417D
:108F100017460C46002680466378404621780DF1BE
:108F200007028DF80730FFF707FF054640B1A0782C
:108F300008B1FBF7CBF90136B74204F10304EBDCCF
:108F4000284602B0BDE8F08138B5124D80F001042A
:108F50002B78A34219D0104BC4B1C8221A74A12295
:108F60001A77782019220C49FFF7D0FF002C14BF84
:108F700000222022094B2C705A7114BF5F227F22DD
:108F8000DA7114BFC822C0225A7238BDC0221A74C6
:108F9000A022E5E740240020000000205C23002000
:108FA00010B5124CA27AA37A013262F301030322B4
:108FB000A372A37A03F00303B3FBF2F202EB4202C3
:108FC0009B1AA27A63F30102A272A07A10F0030046
:108FD00008D0012806D0A07A00F00300831E584272
:108FE000584110BDFFF7B0FFF5E700BFB4290020DE
:108FF000F7B505460F46FDF77FFB002868D0002334
:109000003C4C019394F83D30202B13D146F2A8122A
:10901000394B1B68B3FBF2F31922534322680193C7
:10902000019B591E019163B92022236384F83C30CF
:1090300084F83D20FDF784FF03B0BDE8F040FFF762
:109040005BBE93699907EBD494F83C30012BF1D0C7
:10905000012384F83C3013680026DB0758BF1368EF
:109060004FF078015CBF43F001031360136823F4F1
:1090700000631360212384F83D30102384F83E30D0
:109080001E4B26646785E362638D65629BB2238510
:109090006164FBB1606B1A49103281621949466301
:1090A000C0E90B612946FEF7B2F823681A6842F45A
:1090B00080621A601A6842F480721A6084F83C6018
:1090C0005A6842F440725A605A6842F400625A6028
:1090D00003B0F0BD116841F480611160116841F482
:1090E0008071116084F83C30536843F4E06353604E
:1090F000EEE700BF0C2700204C0000200000FFFF1F
:109100002562000893620008D1210148FFF770BF73
:109110005C23002038B505460C46FEF7B1F828461A
:10912000FCF7FAF9FFF7F0FF2046BDE83840FDF7FD
:109130003DB900002DE9F84F0024754B754E1C60B9
:10914000D6F80090FCF7ACFD071B18BF0127A0461E
:10915000A246714BA3F800A0704BA3F800A0FEF745
:109160008FF8FCF79DFD002800F0BA80D6F800903B
:10917000002F58D000246A4DC4F59673632B6B7B87
:1091800098BFC82413F0080F6B889BB200F0AB8027
:1091900040F25232934288BF6A806B889BB23B2B6D
:1091A00001D83C236B803368A3EB0903B3F5FA6F56
:1091B00000F2AC805B4B012193F800B0687EBBF1FC
:1091C000000F40F09D80584A584B002814BF1046AD
:1091D0001846FCF789F901215548FCF785F9012368
:1091E00068881A4680B20321FCF718FB6B7B1B07CB
:1091F0004CBF00200120FCF7B7FC01214C48FCF7D4
:1092000073F90121687EBBF1000F7CD1474A464BC0
:10921000002814BF10461846FCF766F9FFF774FFE4
:10922000FDF7C0F895E701380F28A4D801A353F83B
:1092300020F000BFCD9200089392000877910008BB
:10924000A1920008779100087791000877910008B3
:1092500075920008779100087791000877910008CF
:1092600077910008779100087791000877910008BE
:109270000D9300083268A4EB08031344B3F5967FFE
:109280007FF679AF264B5A7E598BB2B15A880A4481
:1092900015E0234B5A7E998BEAB15A880A441CE0A8
:1092A0003268A4EB08031344B3F5967F7FF663AFEF
:1092B0001B4B5A7E598B002AE8D05A88521A92B218
:1092C0005A802134D6F80080E4B254E7144B5A7E19
:1092D000998B002AE1D05A88521A92B25A804AE7F2
:1092E0000446074647E7B3F5E17F84BF4FF4E173D7
:1092F0006B806B889BB2092B3FF655AF0A2351E771
:109300000A4A094B61E7084A084B81E7BDE8F88F34
:10931000DC250020B42E002002250020042500209A
:10932000B429002040240020B1C50008B3C50008BE
:1093300036C600082DE9F84F05460F46524C534EED
:10934000627BC2F3C00312077CD5002D78D1A388BD
:1093500062889BB292B2934228BF13461F2B6FD9EB
:10936000092203EB8303A03BB3FBF2F33360637B7F
:10937000C3F3C0001B076FD50020FCF79BFE4FF026
:10938000050800EBC000B0FBF8F808F120081FFA50
:1093900088F84FF00009FDF773FF3D4BDFF8F4A0AC
:1093A000A3F80090627BAAF800905107C2F3800BEB
:1093B00057D549463848FCF797F8354B4946A3F846
:1093C000009008233548AAF80030FCF78DF84A468B
:1093D000404601230321FCF721FA637B1A07C3F3FC
:1093E000C00146BF2E4849462E48FCF77DF80021B3
:1093F0002D48FCF779F8FCF729FD00212B48FCF7F4
:1094000073F8FFF781FEFCF7CDFF3846FBF7D8FB7A
:10941000A0B1237B5BB1264B196841B1254B1A687B
:10942000237B521A4EF660214B439A4203D8FCF735
:1094300037FC082884D1002301203360BDE8F88F71
:10944000002393E7002D91D1A38862889BB292B24A
:10945000934228BF134689E7FCF72CFE1FFA80F8D9
:1094600097E701211448FCF73FF8012340461A46CC
:109470000321FCF7D3F9637B1B074CBF584601203F
:10948000FCF772FBBDE700BFB4290020DC250020FB
:10949000022500200425002051CE00085DCE0008E2
:1094A00094C5000896C5000836C6000898C500088F
:1094B000D8280020B42E00204CCE0008002373B51D
:1094C00000934FF6FF7304460C4EADF8043021466E
:1094D00068463268FDF7DCFE0546FCF7E1FB38B96B
:1094E000002DF4D0FFF710FE2820FCF73DFFEEE73B
:1094F000431E5842584102B070BD00BFB42E002038
:109500002DE9F74F2D48FFF7D9FF002851D0002350
:109510002B4D2C4F2C4EDFF8B480EB82EC8A4FF0B1
:109520000009A4B27CBBA146A346FCF785FD4FF021
:10953000000A8144FDF7A4FE01214046A7F800B0CF
:10954000A6F800B0FBF7D0FFC4F385035FFA8AF2F8
:109550009A42019307D201214046FBF7C5FF0AF169
:10956000010A019BF2E7FFF7CFFD01346420FCF70D
:10957000FBFE102CD9D10021C9F30F10FBF74AFED6
:1095800080B2E882CAE7FDF77BFE1020A7F80090C2
:10959000A6F80090FCF7E8FA0123E88A1A4680B2A0
:1095A0000421FCF73BF9FFF7AFFD4FF49660FCF7A1
:1095B000DBFE002003B0BDE8F08F00BFC2CD000885
:1095C000B42900200225002004250020A0C50008A1
:1095D000F7B504460D4616461F46FDF78DF880B1D7
:1095E0004FF4FA733246009329463B462046FEF775
:1095F00061F808B1FDF7A4FC03B0BDE8F040FFF747
:109600007BBB03B0F0BD00002DE98048142091B071
:10961000FCF7AAFE64238F4C32202370FFF774FB03
:109620008D4D002800F093800C2232208B49FFF7EB
:109630006DFC08B1022323703220FCF795FE002256
:10964000874B1A60EB7A13F00C0F03D04FF4FA60DB
:10965000FCF78AFE102200210CA802F033FF102232
:10966000002108A802F02EFF102200240DEB0200BA
:10967000002102F027FFAB7A2746C3F38303092BAF
:1096800088BF0922A0464FF0030B264682BFAB7A63
:1096900062F38503AB7295F80A90C822C9F383037D
:1096A00040F6E44902FB139301936A4B1B78022BAB
:1096B00061D10623A821322002AAFFF789FF0123E6
:1096C000B521322002AABDF90840BDF90A70BDF9E2
:1096D0000C80FFF77DFF9DF808B04FEA9B0BBBF1B4
:1096E000080F72D0BBF1010F06D0BBF1020F0CBF07
:1096F0004FF0000B4FF0030BAB7A03F00303022B88
:1097000007D1BBF1030F04D0BBFA8BF04009FFF780
:109710001BFC10AB03EB460323F8104C23F8207C12
:1097200023F8308C4F4B01361B780CA808A9002B6E
:1097300051D1324673000DF1100C072A48D801327E
:109740001C525F5223F80C80D2B20233F5E74C2052
:10975000FFF7DAFA48B105224C204349FFF7D6FB60
:1097600000283FF469AF042365E7AB7A60F3850313
:10977000AB7263235FE7042BBED1062302214C208A
:1097800002AAFFF725FF0023BDF908400C218DF840
:1097900008304C20012302AABDF90A70BDF90C80E3
:1097A000FFF716FF9DF80830A410602B4FEAA707BB
:1097B0004FEAA80806D0702B14BF4FF0030B4FF0F0
:1097C000000B99E74FF0010B96E74FF0030B93E77F
:1097D0000123244A1370002282468946082011463C
:1097E000134606F007060DF1100C3AF902EB0138AA
:1097F000734439F902EB10F0FF0071443CF902EBBD
:109800007244F2D1002BB8BF0733C4EBE303002B43
:10981000B8BF5B420029B8BF0731C7EBE10100299F
:10982000B8BF4942002AB8BF0732C8EBE202002A9B
:109830001944B8BF5242019B0A449342B8BF0B4B34
:109840004FF06400BEBF1A68054B1A60FCF78CFD30
:1098500021E700BF04010020B429002083DB0008B9
:10986000D8280020DA25002074DB0008B42E002060
:109870002DE9F843FCF764FA35232D4D2D4CEB60B0
:1098800002F0ACFC0120FAF721FDFCF759FA237E27
:10989000012B07D001232376FDF7C4F8074668B3F0
:1098A0000023237602F09AFC0025234F204EDFF898
:1098B0008C80FCF745FA237E012B15D0012337F865
:1098C00015902376FDF7AEF860B9E061336943F097
:1098D0000103336128F81590FDF7A4F8336923F0EC
:1098E00001033361002323760135182DE1D1104A9D
:1098F000136943F080031361BDE8F8830F4E06F54A
:1099000080684645CCD2E7612B6943F002032B61A6
:109910006E612B6943F040032B61FDF783F82B69DF
:1099200023F002032B610028BAD106F58066E8E730
:1099300000200240E8280020B429002000FC000894
:109940002DE9F84F18BB00263546B84CFCF7A8F9AE
:10995000002E00F0BD80637B13F0600F00F0B88034
:10996000102822D8102823D8DFE810F0DC000001EE
:1099700000012200F4002200220022000001220047
:109980002200220022002200220022000001831E69
:10999000584258410121FFF7CDFC0128D3D1A44BF7
:1099A0001A68A44B1A60BDE8F88F202800F0CB801D
:1099B0004FF0000BDFF880A2DFF88092AAF800B029
:1099C000A9F800B0FDF75CFC637B9D4F13F0040F1A
:1099D00000F0F5804FF00A0859469A48FBF784FDDD
:1099E00038680123B0FBF8F05A46022180B2FBF739
:1099F00015FF59469448FBF777FD38685A46B0FB87
:109A0000F8F308FB1300012380B21946FBF706FFA9
:109A100059468E48FBF768FDA37A13F03C0F25D01A
:109A2000A3791BB359468A48FBF75EFDFBF7B0F8F4
:109A30007F4F804B87493F681B680968C01B99426C
:109A40002CBF4018C018844B984240F2A7804EF6B5
:109A50006023B0FBF3F00130022180B201235A46AB
:109A6000FBF7DCFE59467D48FBF73EFD0027082347
:109A700039467B48AAF80070A9F80030FBF734FD9E
:109A800039460120FCF73AFB002D00F0958039465D
:109A90007448FBF729FDFCF7D9F900217248FBF760
:109AA00023FDFFF731FB714A637B002D00F0F68048
:109AB00013F0080FA38A9BB200F0E5801F2B40F241
:109AC000E180092103EB8303A03BB3FBF1F3DAE070
:109AD000102829D810283FF66BAF01A353F820F0C7
